:100000000C942A000C94BA010C94E1010C9408029F
:100010000C943C000C943C000C943C000C943C0070
:100020000C943C000C943C000C943C000C943C0060
:100030000C943C000C943C000C943C000C943C0050
:100040000C949D000C943C000C943C000C943C00DF
:100050000C943C0011241FBECFE5D8E0DEBFCDBF1D
:1000600010E0A0E6B0E001C01D92AB36B107E1F7A9
:100070000E944C020C9472020C940000882321F41C
:100080003C983B983A9818C0813021F43C983B98B2
:100090003A9819C0823021F43C983B983A981BC09A
:1000A000833029F43C983B983A98399A0DC08430B3
:1000B00029F43C983B983A9A39980EC0853031F42F
:1000C0003C983B983A9A3998389A0895863031F49A
:1000D0003C983B983A9A399A38980895873029F491
:1000E0003C983B983A9A399A389A08953F983E9AA4
:1000F00080E00E943E003D98379A3598339A3098B8
:100100003198329880B78F7780BF80B78F7B80BF60
:1001100080B78F7D80BF349A089524B145B1942F64
:1001200080E030E0282B392BC9010895369A0895D4
:10013000909361008093600008951F920F920FB614
:100140000F9211242F933F934F935F936F937F935D
:100150008F939F93AF93BF93EF93FF93E0916000D2
:10016000F09161000995FF91EF91BF91AF919F913F
:100170008F917F916F915F914F913F912F910F9050
:100180000FBE0F901F9018951ABA8FEF87BB84BBD4
:1001900081BB0895382F8830C8F4613059F42BB3EF
:1001A00081E090E002C0880F991F3A95E2F7282B72
:1001B0002BBB08952BB381E090E002C0880F991FFC
:1001C0003A95E2F7809582238BBB08958031F8F44D
:1001D000482F50E0613069F428B34850504081E026
:1001E00090E002C0880F991F4A95E2F7282B28BBA0
:1001F000089528B34850504081E090E002C0880F35
:10020000991F4A95E2F78095822388BB089588312B
:10021000F8F4482F50E0613069F425B34051504064
:1002200081E090E002C0880F991F4A95E2F7282BE1
:1002300025BB089525B34051504081E090E002C0B5
:10024000880F991F4A95E2F78095822385BB089510
:100250008032F0F4482F50E0613069F422B3485105
:10026000504081E090E002C0880F991F4A95E2F764
:10027000282B22BB089522B34851504081E090E0E2
:1002800002C0880F991F4A95E2F78095822382BBAE
:100290000895882311F46BBB0895813011F468BB75
:1002A0000895823011F465BB0895833009F462BB70
:1002B0000895482F883040F489B390E002C09595A6
:1002C00087954A95E2F713C0803128F426B330E0D1
:1002D00090E0089706C0883160F423B330E090E0E6
:1002E000409702C0359527958A95E2F7822F817055
:1002F0000895803210F080E0089520B330E090E05F
:10030000489702C0359527958A95E2F7822F81702C
:1003100008958AB780628ABF8AB780688ABF8AB721
:1003200080648ABF85B7826085BF85B7816085BFDD
:1003300085B7886085BF85B7846085BF84B78064D2
:1003400084BF8BB780628BBF8BB780688BBF8BB746
:1003500080648BBF0895909363008093620008953A
:100360009093650080936400089590936700809354
:10037000660008951F920F920FB60F9211242F93CB
:100380003F934F935F936F937F938F939F93AF931D
:10039000BF93EF93FF93E0916200F09163000995A2
:1003A000FF91EF91BF91AF919F918F917F916F914D
:1003B0005F914F913F912F910F900FBE0F901F9023
:1003C00018951F920F920FB60F9211242F933F93FF
:1003D0004F935F936F937F938F939F93AF93BF934D
:1003E000EF93FF93E0916400F09165000995FF9110
:1003F000EF91BF91AF919F918F917F916F915F919D
:100400004F913F912F910F900FBE0F901F90189515
:100410001F920F920FB60F9211242F933F934F9379
:100420005F936F937F938F939F93AF93BF93EF935C
:10043000FF93E0916600F09167000995FF91EF91BD
:10044000BF91AF919F918F917F916F915F914F91EC
:100450003F912F910F900FBE0F901F90189587E03E
:100460000E945901811181E008950E948D002CEBBA
:1004700032E0AC01429FC001439F900D529F900D0E
:1004800011248E5C974C18F082E161E002C082E199
:1004900060E00E94CA0008951F930E94C40085E393
:1004A00092E00E9498000E9476000E9489018FB716
:1004B00080688FBF0E94960019B30E942F02882384
:1004C00019F080E161E002C080E160E00E94CA00B2
:1004D00016FF03C081E161E002C081E160E00E949B
:0804E000CA00E8CFF894FFCF39
:00000001FF
